:020000040800F2
:10000000883E00202D0200081D290008192900083B
:100010001B29000867040008652B00080000000089
:10002000000000000000000000000000212900087E
:1000300069040008000000001F29000823290008A7
:10004000470200084702000847020008470200086C
:10005000470200084702000847020008470200085C
:10006000470200084702000847020008470200084C
:10007000470200084702000847020008470200083C
:10008000470200084702000847020008470200082C
:10009000470200084702000847020008470200081C
:1000A000470200084702000847020008470200080C
:1000B00047020008470200084702000847020008FC
:1000C00047020008470200084702000847020008EC
:1000D00047020008412B0008470200084D2B00088A
:1000E00047020008470200084702000847020008CC
:1000F00047020008470200084702000847020008BC
:1001000047020008470200084702000847020008AB
:1001100047020008F92A00084702000847020008C1
:10012000470200084702000847020008470200088B
:10013000470200080000000000000000470200081D
:10014000470200084702000847020008470200086B
:10015000470200084702000847020008592B000820
:10016000470200084702000847020008470200084B
:1001700047020008470200080000000000000000DD
:10018000470200084702000800F002F800F03EF8BD
:100190000AA090E8000C82448344AAF10107DA45E2
:1001A00001D100F033F8AFF2090EBAE80F0013F0F6
:1001B000010F18BFFB1A43F001031847BC91000060
:1001C000DC910000103A24BF78C878C1FAD85207F1
:1001D00024BF30C830C144BF04680C6070470000C1
:1001E0000023002400250026103A28BF78C1FBD840
:1001F000520728BF30C148BF0B6070471FB508F0D9
:100200009FFF00F0D5F81FBD10B510BD00F0F6F847
:100210001146FFF7F3FF08F0ADF800F014F903B44E
:10022000FFF7F2FF03BC00F017F900000948804710
:1002300009480047FEE7FEE7FEE7FEE7FEE7FEE7C8
:10024000FEE7FEE7FEE7FEE704480549054A064BE0
:10025000704700002929000889010008880E002045
:10026000883E0020881E0020881E002053EA020CD1
:1002700000F069802DE9F04B4FF00006002B1FBF06
:10028000B3FA83F503FA05F424FA05F65E4012BFCB
:100290001643B2FA82F502FA05F4C5F120051EBF35
:1002A00022FA05FC44EA0C04203556EA044C4FEAD5
:1002B000144418BF641C4FF000084FF0000990422E
:1002C00071EB030C39D3002919BFB1FA81F701FA98
:1002D00007F6B0FA80F700FA07F6C7F120071EBF4D
:1002E00020FA07FC46EA0C062037B6FBF4FCA7EB25
:1002F0000507103F07F01F0BCBF120060CFA0BFB94
:100300002CFA06F644BFB3460026202FA4BF5E4653
:100310004FF0000B5BEA060C08BF4FF0010B19EB26
:100320000B09ABFB027C48EB0608C01B06FB02CCAA
:100330000BFB03CC71EB0C01C1E70B4602464146B7
:100340004846BDE8F08B13B54FF000004FF00001B8
:10035000AFF30080BDE81C4070474FF0000200B5CD
:10036000134694469646203922BFA0E80C50A0E8D8
:100370000C50B1F12001BFF4F7AF090728BFA0E886
:100380000C5048BF0CC05DF804EB890028BF40F852
:10039000042B08BF704748BF20F8022B11F0804F94
:1003A00018BF00F8012B7047704770477047000076
:1003B00070B5064C7C44064D7D4403E02068204423
:1003C0008047241DAC42F9D170BD0000E08F0000D1
:1003D000E08F000010B500F009F8006810BD10B5FE
:1003E000044600F003F8046010BD000000487047A8
:1003F000280E002000487047280E00207546FFF7A1
:10040000F9FFAE4605006946534620F007008546D1
:1004100018B020B5FFF718FFBDE820404FF00006E8
:100420004FF000074FF000084FF0000B21F00701DC
:10043000AC46ACE8C009ACE8C009ACE8C009ACE81F
:10044000C0098D46704710B50446AFF300802046C2
:10045000BDE81040FFF7E3BE01491820ABBEFEE740
:10046000260002007047FEE77047000000220029C6
:1004700005D001291AD002291BD04FF440720E4931
:100480000B6823F440730B600B681A430A600A6818
:1004900022F0F8020A600A68022343EAC00010430F
:1004A0000860086840F48030086070474FF480723C
:1004B000E5E74FF40072E2E7103C0240144801689F
:1004C00011F4007F0FD0016821F400710160016810
:1004D00041F400610160016821F40061016001687C
:1004E00041F400710160016811F4806F0FD0016860
:1004F00021F480610160016841F48051016001686C
:1005000021F480510160016841F48061016070470D
:10051000003C024070B5044614490020C86100F058
:10052000ABFC0646124D286810F4803F0ED0B4F1A3
:10053000FF3F07D024B100F09FFC801BA04201D9EF
:10054000032070BD286810F4803FF0D1286810F0B7
:10055000010F01D001202860286810F0F20F03D0AD
:1005600006F018FD012070BD002070BD080E0020AF
:100570000C3C024038B44FF0000CCDF800C090F8AD
:100580003C20012A1BD0012280F83C200A68072465
:10059000092A17D90368DD680A3A02EB420204FA15
:1005A00002F225EA0202DA600A788B680A3A02EB64
:1005B000420293400268D4682343D36014E038BCFD
:1005C0000220704703681D6902EB420204FA02F23E
:1005D00025EA02021A610A788B6802EB4202934014
:1005E00002681469234313614A681F24072A15D23D
:1005F00003685D6B521E02EB820204FA02F225EAE6
:1006000002025A630A8893B20A79521E02EB8202EE
:1006100093400268546B234353632CE00D2A15D298
:1006200003681D6BD21F02EB820204FA02F225EA74
:1006300002021A630A8893B20A79D21F02EB82027D
:1006400093400268146B2343136314E00368DD6A6C
:100650000D3A02EB820204FA02F225EA0202DA62A1
:100660000A8893B20A790D3A02EB8202934002683B
:10067000D46A2343D362184A184B04689C4206D1BB
:100680000C68122C03D1546844F48004546004684C
:100690009C421CD10B68102B01D0112B17D1536831
:1006A00043F4000353600968102910D10C490D4A26
:1006B0000968B1FBF2F101EB810149000091009959
:1006C00029B10099491E009100990029F9D180F8BB
:1006D0003CC038BC0020704700230140002001408E
:1006E000CC00002040420F000068C06C704770B51D
:1006F00004460025002C03D0206C002610B107E032
:10070000012070BD204600F01DF8666484F83C604E
:10071000206C10F0100F04D0012584F83C602846AE
:1007200070BD206C20F4885040F002002064204608
:1007300006F076F86664206C20F0020040F00100BC
:100740002064EAE710B586B0044614216846FFF736
:1007500004FE1149206888421CD11048002102681B
:1007600042F480720260006800F4807005900B48CB
:100770001438026842F002020260006800F00200D1
:100780000590022000900320CDE90101694604484C
:1007900000F046FA06B010BD002001404438024087
:1007A000000402402DE9F04104460D4620688168AE
:1007B0004FF0000711F4806F0CD0806810F4807F38
:1007C00008D0206C40F02000206484F83C700120A8
:1007D000BDE8F08100F050FB06462068006810F08C
:1007E000020F12D1B5F1FF3F0AD025B100F044FB52
:1007F000801BA84204D92068006810F0020F12D0B4
:100800002068006810F0020FECD021686FF0120031
:100810000860206C40F4007020642068816811F04A
:10082000405F09D01EE0206C40F00400206484F892
:100830003C700320BDE8F081217E99B9C16A11F4B2
:10084000700F03D0806810F4806F0BD1206C20F4FF
:1008500080702064206C10F4805F03D1206C40F025
:10086000010020640020BDE8F081000081B000227A
:10087000009290F83C10012908D0012180F83C102A
:1008800001688B6813F0010F03D016E0022001B05D
:1008900070478B6843F001038B603949394B096815
:1008A000B1FBF3F101EB41010091009929B10099ED
:1008B000491E009100990029F9D101688B6813F055
:1008C000010F52D0036C23F0010323F4C06343F4FF
:1008D000807303644B6813F4806F05D0036C23F4BA
:1008E000005343F480530364036C13F4805F04D01B
:1008F000436C23F00603436400E0426480F83C202C
:10090000214A6FF022030B60516811F01F0F1F493D
:1009100007D00068884230D1816811F0405F1FD055
:100920002BE00068884212D0194A904204D1D1F8D5
:10093000042312F01F0F0AD0A0F18042B2F59132C9
:100940001BD1D1F8041301F01F01102915D28168C1
:1009500011F0405F11D1816841F0804181600CE06D
:10096000816841F08041816007E0016C41F0100135
:100970000164416C41F001014164002001B0704705
:10098000CC00002040420F00002301400020014025
:100990000021014090F83C1001290DD0012180F880
:1009A0003C1001688A6822F001028A600168896847
:1009B00011F0010F02D007E002207047016C21F412
:1009C000885141F001010164002180F83C100020B1
:1009D00070472DE9F0410446A66D00F04DFA05463A
:1009E00094F835000027022806D08020606584F83E
:1009F00034700120BDE8F0812068016821F0160103
:100A000001602068416921F080014161206C08B9D2
:100A1000A06C20B12068016821F008010160206805
:100A2000016821F0010101602068006810F0010FE9
:100A300012D000F021FA401B052808D9202060655B
:100A4000032084F8350084F83470BDE8F081206814
:100A5000006810F0010FECD194F85C003F2101FA1E
:100A600000F0B060012084F8350084F83470002074
:100A7000BDE8F08190F83510022903D0802141654E
:100A800001207047052180F835100068016821F0C9
:100A9000010101600020704770B5044600F0ECF9D8
:100AA0000546B4F1FF3F02D004480078044400F04A
:100AB000E3F9401BA042FAD370BD0000C000002043
:100AC0002DE9F04104460F46DFF8988098F81800A9
:100AD00001280AD0012088F818004CF25030FFF7A6
:100AE00019FD0246100003D035E00220BDE8F08178
:100AF0004FF0FF30386020681B4E012815D0A568E4
:100B0000E0682844A84224D9217C2846FFF7AEFC9F
:100B10004CF25030FFF7FEFC0246306820F0FA003D
:100B2000306010000FD03D6013E0207C616806F05B
:100B300097FA4CF25030FFF7EDFC0246306820F097
:100B40000400306005E06D1CA168E0680844A8421C
:100B5000DAD8FFF7B3FC002088F818001046BDE88B
:100B6000F0810000080E0020103C02402DE9F04109
:100B70000646884614461D461A4F387E012807D07F
:100B8000012038764CF25030FFF7C4FC18B115E064
:100B90000220BDE8F081AEB1012E18D0022E1BD08C
:100BA00022462B46404606F041FA4CF25030FFF701
:100BB000B1FC0D490A6822F001020A600021397671
:100BC000BDE8F081E1B2404606F0C2F9EDE7A1B21E
:100BD000404606F019FAE8E72146404606F0C8F913
:100BE000E3E70000080E0020103C02400020084906
:100BF0000A6812F0004F09D0074A064B1360074BF2
:100C00001360096811F0004F00D001207047000008
:100C1000103C024023016745043C0240AB89EFCD04
:100C20002DE9F84F0022DFF818A2DFF810924FF0FC
:100C3000010E03274FF00F08AAF1040B0EFA02FC75
:100C40000B6803EA0C0363457DD10C7904F00304BF
:100C5000012C01D0022C14D18568540007FA04F647
:100C6000B543CE6806FA04F42C438460446824EA51
:100C70000C0C0C79C4F30014944044EA0C0CC0F83A
:100C800004C0D1F804C037EA0C0C0CD0C4684FEA99
:100C9000420C07FA0CF5AC438D6805FA0CFC4CEAE3
:100CA000040CC0F80CC091F804C00CF0030CBCF1AB
:100CB000020F12D14FEAD20C00EB8C04256A4FEAE6
:100CC000427C4FEADC6C08FA0CF6B5430E6906FA72
:100CD0000CFC4CEA050CC4F820C004684FEA420C36
:100CE00007FA0CF5AC430D7905F0030505FA0CFC89
:100CF0004CEA040CC0F800C0D1F804C01CF4403F1A
:100D00007DD0D9F800C04CF4804CC9F800C0D9F8A7
:100D100000C00CF4804CCDF800C022F0030C0CF1A4
:100D2000804505F59835D5F808C89407240F08FACA
:100D300004F62CEA0606A0F1804CBCF5003C64D019
:100D4000A0F1804C00E05AE0BCF5013C60D0A0F17D
:100D5000804CBCF5023C5ED0A0F1804CBCF5033C5D
:100D60005CD0A0F1804CBCF5043C5AD0A0F1804C82
:100D7000BCF5053C58D0A0F1804CBCF5063C56D0E3
:100D8000A0F1804CBCF5073C54D04FF0080C0CFA95
:100D900004FC4CEA060CC5F808C8DAF800C02CEAD6
:100DA000030C4C6814F4801F01D04CEA030CCAF801
:100DB00000C0244CD4F800C02CEA030C4D6815F494
:100DC000001F01D04CEA030CC4F800C0DBF800C0DF
:100DD0002CEA030C4C6814F4003F01D04CEA030CDD
:100DE000CBF800C0184CD4F800C02CEA030C4D68B6
:100DF00015F4803F01D04CEA030CC4F800C0521C2B
:100E0000102AFFF41BAFBDE8F88F4FF0000CBEE7CF
:100E10004FF0010CBBE74FF0020CB8E74FF0030CAA
:100E2000B5E74FF0040CB2E74FF0050CAFE74FF019
:100E3000060CACE74FF0070CA9E70000443802406D
:100E4000083C01400C3C0140003C01400069084264
:100E500001D00120704700207047426921EA020357
:100E6000114043EA014181617047002A01D081614C
:100E7000704709048161704701488068704700002D
:100E8000C0000020024881680278114481607047E8
:100E9000C000002010B50B48016841F400710160EA
:100EA000016841F480610160016841F48071016072
:100EB000032000F087F8002000F006F800F026F884
:100EC000002010BD003C024070B504460D4D4FF4AB
:100ED0007A712878B1FBF0F00B490968B1FBF0F0AA
:100EE00000F0F2FE08B1012070BD102C07D20022E4
:100EF0002146501E00F032F86C60002070BD0120C9
:100F000070BD0000C0000020CC0000200B4882B063
:100F1000016841F480410160006800F48040009065
:100F20000648001F016841F080510160006800F030
:100F300080500090052002B000F044B844380240D0
:100F400000280ADB00F01F01012202FA01F140092A
:100F5000800000F1E020C0F80011704710B4184B79
:100F60001B68C3F30223C3F1070CBCF1040F01D9C2
:100F70004FF0040C1C1D072C01D2002300E0DB1EE7
:100F8000012404FA0CFCACF1010C0CEA01019940BB
:100F900004FA03F35B1E1A401143002806DB00F13C
:100FA000E020090180F8001410BC704700F00F0029
:100FB00000F1E020090180F8141D10BC704700000A
:100FC0000CED00E000F00700064A11684FF6FF0341
:100FD000194041EA002040F0FD7040F08060106050
:100FE000704700000CED00E02DE9F04704460D4687
:100FF000002C13D0DFF85491D9F80000EFB200F0C4
:101000000700A8420DD289F80070D9F8000000F05E
:101010000700A84205D00120BDE8F0870120BDE807
:10102000F08720684A4E10F0020F14D010F0040F21
:1010300003D0306840F4E0503060207810F0080FA2
:1010400003D0306840F4604030603068A16820F020
:10105000F00008433060207810F0010F3ED0606847
:101060003C49012808D002280DD003280BD009687C
:1010700011F0020F28D00AE0096811F4003F06D1F0
:101080000120BDE8F087096811F0007F19D03168B0
:1010900021F0030108433060FFF7EEFE8046306820
:1010A000616800F00C00B0EB810F17D041F2883A74
:1010B000FFF7E2FEA0EB0800504508D90320BDE889
:1010C000F0870120BDE8F0870120BDE8F087306897
:1010D000616800F00C00B0EB810FE9D1D9F8000095
:1010E00000F00700A8420AD989F80070D9F800007A
:1010F00000F00700A84202D00120BDE8F087207868
:1011000010F0040F05D03068E16820F4E050084387
:101110003060207810F0080F06D03068216920F484
:10112000604040EAC100306000F042F831680A4A8D
:10113000C1F30311515CC8400849086008480068C1
:10114000FFF7C2FE0020BDE8F0870000003C02402F
:1011500008380240003802404A910008CC000020C4
:10116000C40000200148006870470000CC00002047
:1011700000B5FFF7F7FF04490968044AC1F382216B
:10118000515CC84000BD0000083802405A91000878
:1011900000B5FFF7E7FF04490968044AC1F342318B
:1011A000515CC84000BD0000083802405A91000858
:1011B00010B51748006810F00C01164816D04310FF
:1011C000042912D0082911D1134C216801F03F02E3
:1011D000216811F4800F0AD02068C0F38810A0FBAA
:1011E00003010023FFF742F809E0184610BD21680B
:1011F0000023C1F38811A1FB0001FFF737F8216834
:10120000C1F30141491C4900B0FBF1F010BD0000E1
:10121000083802400024F400043802402DE9F84F59
:101220000446002C12D02078FB4E10F0010FA6F1DE
:10123000040563D0301D016801F00C0104290CD0B5
:10124000006800F00C00082803D010E00120BDE881
:10125000F88F306810F4800F09D0286810F4003F30
:101260004CD06068002849D10120BDE8F88F606843
:10127000B0F5803F14D0B0F5A02F16D0286820F428
:1012800080302860286820F480202860606810B3CF
:10129000FFF7F2FD0746286810F4003F0ED02DE05E
:1012A000286840F480302860F0E7286840F4802007
:1012B0002860286840F480302860E7E7FFF7DCFD0D
:1012C000C01B642802D90320BDE8F88F286810F4F9
:1012D000003FF3D012E0FFF7CFFD0746286810F477
:1012E000003F0BD0FFF7C8FDC01B642802D90320C4
:1012F000BDE8F88F286810F4003FF3D12078C74F7D
:1013000010F0020F4FF0000957D0C548016811F0E6
:101310000C0F14D0006800F00C00082803D13068CE
:1013200010F4800F0BD0E06880B301203860FFF725
:10133000A3FD8046286810F0020F12D01EE0286836
:1013400010F0020F05D0E068012802D00120BDE8AE
:10135000F88F2868216920F0F80040EAC100286071
:101360002BE0FFF789FDA0EB0800022802D903203B
:10137000BDE8F88F286810F0020FF2D028682169C4
:1013800020F0F80040EAC100286016E0FFE7C7F847
:101390000090FFF771FD8046286810F0020F0CD016
:1013A000FFF76AFDA0EB0800022802D90320BDE880
:1013B000F88F286810F0020FF2D1207810F0080F93
:1013C00035D09848DFF860A26169C1B101210160A0
:1013D000FFF752FD8046DAF8000010F0020F26D128
:1013E000FFF74AFDA0EB0800022802D90320BDE860
:1013F000F88FDAF8000010F0020FF1D017E0C0F813
:101400000090FFF739FD8046DAF8000010F0020F77
:101410000DD0FFF731FDA0EB0800022802D9032010
:10142000BDE8F88FDAF8000010F0020FF1D1207853
:1014300010F0040F71D04FF000087C48006810F0E5
:10144000805F0AD17948016841F0805101600068ED
:1014500000F0805000904FF00108DFF8D4B1DBF8C5
:10146000000010F4807F1BD1DBF8000040F4807096
:10147000CBF80000FFF700FD8246DBF8000010F417
:10148000807F0DD1FFF7F8FCA0EB0A00022802D9FB
:101490000320BDE8F88FDBF8000010F4807FF1D066
:1014A000A068DFF890B1012818D005281DD0DBF81E
:1014B000000020F00100CBF80000DBF8000020F075
:1014C0000400CBF80000A06840B3FFF7D5FC8246CB
:1014D000DBF8000010F0020F14D03EE0DBF8000053
:1014E00040F00100CBF80000EDE7DBF8000040F031
:1014F0000400CBF80000DBF8000040F00100CBF85E
:101500000000E0E7FFF7B8FCA0EB0A0141F28830E9
:10151000814204D90320BDE8F88F26E005E0DBF81E
:10152000000010F0020FEDD017E0FFF7A5FC824697
:10153000DBF8000010F0020F0FD0FFF79DFCA0EBCE
:101540000A0141F28830814202D90320BDE8F88FB8
:10155000DBF8000010F0020FEFD1B8F1010F04D159
:101560003248016821F080510160A069F0B32C4934
:1015700009684FF0FF3801F00C01082966D00228F5
:1015800010D0C7F86090FFF777FC0446286810F089
:10159000007F2BD0FFF770FC001B022851D90320DD
:1015A000BDE8F88FC7F86090FFF766FC81462868B1
:1015B00010F0007F0CD0FFF75FFCA0EB09000228C1
:1015C00002D90320BDE8F88F286810F0007FF2D11F
:1015D000216AE069A26A0843616A08EB5202890144
:1015E00041EA0241084394F82C1000E055E040EA3B
:1015F0000160306001203866FFF73EFC0446286831
:1016000010F0007F49D1FFF737FC001B022813D9E7
:101610000320BDE8F88F0000043802400000474274
:1016200008380240800E4742743802404038024079
:101630000070004070380240286810F0007FE2D04F
:101640002BE0286810F0007FA4D126E0012822D0EA
:101650003068E26900F4800191421AD1226A00F0F8
:101660003F01914215D147F6C071626A0140B1EB6A
:10167000821F0ED1A26A00F4403108EB5202B1EB96
:10168000024F06D194F82C1000F07060B0EB016F9F
:1016900003D00120BDE70120BBE70020B9E770B50A
:1016A0000446002C09D0606A002540B125616561BF
:1016B000A56294F8510040B10CE0012070BD606853
:1016C000B0F5827FF4D0E561F2E784F8505020460F
:1016D00000F044F8022084F851002068016821F0ED
:1016E00040010160A088218900F4827001F4044166
:1016F0000843A18901F400610843217C01F0020143
:101700000843217D01F001010843218B01F40071A0
:101710000843217F01F03801084394F8201001F0BC
:1017200080010843218D01F40051084321680860BD
:10173000A169042000EA114094F8241001F010017E
:101740000143206841602068C16921F40061C161E2
:101750006565012084F85100002070BD10B586B089
:10176000044614216846FEF7F8FD134920688842B4
:1017700020D112480021026842F4805202600068C1
:1017800000F4805005900D481438026842F00102C0
:101790000260006800F001000590E0200090022047
:1017A000CDE9010103200390052004906946044817
:1017B000FFF736FA06B010BD003001404438024051
:1017C000000002402DE9F84F04468A4691461D4626
:1017D000002660684FF0040BB0F5827F01D1A0684D
:1017E00088B194F85000012818D0012084F85000E6
:1017F000FFF742FB074694F851004FF0000801281C
:101800000FD002268BE084F851B04B465246514629
:101810002046009500F05BF9BDE8F88F0220BDE896
:10182000F88FBAF1000F1BD0B9F1000F18D084F86F
:1018300051B0C4F85480C4F838A0A4F83C90A4F87F
:101840003E90C4F83080A4F83480A4F83680C4F800
:101850004080C4F84480A068B0F5004F02D00BE08F
:1018600001265CE02068016821F0400101602068E9
:10187000016821F4804101602068016811F0400F87
:1018800003D1016841F040010160E06880B1E08F60
:1018900058B32068816811F0010F29D0C068A16B8E
:1018A0000880A06B801CA063E08F401EE08728E0CA
:1018B000E08FD0B12068816811F0010F09D0007B62
:1018C000A16B0870A06B401CA063E08F401EE087F6
:1018D00008E0FFF7D1FAC01BA84202D3B5F1FF3FE1
:1018E00004D11DB1E08F0028E4D10DE0032616E0FD
:1018F000FFF7C2FAC01BA84202D3B5F1FF3F16D1D1
:10190000ADB1E08F0028C4D13A462946204605F003
:101910001FF808B120206065606D00B1012601202C
:1019200084F8510084F850803046BDE8F88F0326D3
:10193000F5E72DE9F84F04468B4692461D460026F2
:1019400094F8500001280DD04FF0010984F8509010
:10195000FFF792FA074694F85100B046012804D0E8
:101960000226ADE00220BDE8F88FBBF1000F1CD0CD
:101970005FEA0A0019D0032084F85100C4F85480AB
:10198000C4F830B0A4F834A0A4F836A0C4F8388065
:10199000A4F83C80A4F83E80C4F84480C4F8408099
:1019A000A068B0F5004F02D00BE0012688E0206867
:1019B000016821F0400101602068016841F4804124
:1019C00001602068016811F0400F03D1016841F007
:1019D00040010160E068B0F5006F05D0606888B331
:1019E000BAF1010F31D03AE0606810B1BAF1010FDD
:1019F00009D1206B21680088C860206B801C20639F
:101A0000E08E401EE086E08E002845D02068816888
:101A100011F0020F09D0216B0988C160206B801C76
:101A20002063E08E401EE08608E0FFF725FAC01B29
:101A3000A84202D3B5F1FF3F05D125B1E08E0028C1
:101A4000E4D129E001E003263AE0206B2168007828
:101A50000873206B401C2063E08E401EE086E08E01
:101A6000D0B12068816811F0020F09D0216B09788C
:101A70000173206B401C2063E08E401EE08608E06E
:101A8000FFF7FAF9C01BA84202D3B5F1FF3F0ED110
:101A90006DB1E08E0028E4D13A462946204604F094
:101AA0009DFF08B120206065A06810B105E0032605
:101AB00006E02068C16880680090606D00B1012672
:101AC00084F8519084F850803046BDE8F88F2DE9B5
:101AD000F84F04460A9E8A4693461F4601254FF05A
:101AE000000894F8500001280ED0012084F850001E
:101AF000FFF7C2F9814694F85100616801280ED0C1
:101B0000B1F5827F07D102E00220BDE8F88FA1681D
:101B100009B9042803D04FF0020800F0CBB8BAF19D
:101B2000000F1DD0BBF1000F1AD0380018D094F868
:101B30005100042802D0052084F85100002060657F
:101B4000C4F838B0E787A787C4F830A0E786A7862F
:101B5000206460642068016811F0400F03D006E043
:101B60004FF00108A6E0016841F040010160E06823
:101B7000B0F5006F05D06068002848D0012F46D02E
:101B80007EE0606808B1012F3AD1206B216800889F
:101B9000C860206B801C2063E08E401EE0862FE032
:101BA0002068816811F0020F0DD0E18E59B1012D2E
:101BB00009D1216B0988C160206B801C2063E08EF5
:101BC000401EE08600252068816811F0010F0BD0CF
:101BD000E18F49B1C068A16B0880A06B801CA06335
:101BE000E08F401EE0870125FFF746F9A0EB0900D2
:101BF000B04205D3B6F1FF3F02D04FF0030859E0E1
:101C0000E08E0028CCD1E08F0028C9D13EE0206BC7
:101C1000216800780873206B401C2063E08E401E12
:101C2000E0862DE02068816811F0020F0DD0E18E72
:101C300059B1012D09D1216B09780173206B401C2A
:101C40002063E08E401EE08600252068816811F048
:101C5000010F0BD0E18F49B1C068A16B0870A06B78
:101C6000401CA063E08F401EE0870125FFF704F9C8
:101C7000A0EB0900B04202D3B6F1FF3F11D186B10B
:101C8000E08E0028CED1E08F0028CBD14A463146E5
:101C9000204604F0A3FE38B14FF001082020606513
:101CA00008E04FF0030805E0A06818B92068C16893
:101CB00080680090012084F85100002084F85000D2
:101CC0004046BDE8F88F0000401EB0F1807F01D390
:101CD000012070474FF0E0214861044AF020107065
:101CE00000208861072008610020704723ED00E094
:101CF00030B490F83C20012A44D0012480F83C40C4
:101D0000022280F83D200268D2F804C093682CF0CB
:101D1000700C0D6845EA0C0CC2F804C00268A2F110
:101D2000804CBCF5803C20D0B2F1804F1DD0A2F198
:101D3000804CBCF5806C18D0A2F1804CBCF5006CD6
:101D400013D0A2F1804CBCF5406C0ED0A2F1804CB7
:101D5000BCF5823C09D0A2F1804CBCF5A03C04D07B
:101D6000A2F1804CBCF5C05C04D123F0800349682B
:101D70001943916080F83D40002180F83C1030BC50
:101D80000020704730BC0220704710B50446002C7C
:101D900003D094F83D0010B107E0012010BD0020F1
:101DA00084F83C00204600F01FF8022084F83D0033
:101DB000211D206800F0E4FD012084F8460084F82D
:101DC0003E0084F83F0084F8400084F8410084F825
:101DD000420084F8430084F8440084F8450084F805
:101DE0003D00002010BD000008B50068B0F1804F34
:101DF00008D10548016841F001010160006800F068
:101E00000100009008BD00004038024090F83D10ED
:101E1000012901D001207047022180F83D1001689E
:101E2000CA6842F00102CA600068A0F18041B1F5C1
:101E3000803126D0B0F1804F23D0A0F18041B1F5A0
:101E400080611ED0A0F18041B1F5006119D0A0F1F0
:101E50008041B1F5406114D0A0F18041B1F58231EB
:101E60000FD0A0F18041B1F5A0310AD0A0F180419E
:101E7000B1F5C05105D0016841F0010101600020B9
:101E80007047816801F007010629F8D0016841F028
:101E900001010160F3E770B50446002594F83C00A9
:101EA000012818D0012684F83C60022084F83D0007
:101EB0002068826822F0770222F47F4282600868FC
:101EC000502839D00EDC202854D006DC002851D010
:101ED000102811D14EE0022070BD30284AD0402891
:101EE0000AD13DE0602831D070280DD0B0F5805F78
:101EF00003D0B0F5005F13D0012584F83D600020C9
:101F000084F83C00284670BDCB684A688968206820
:101F100000F0ABFD2068816841F077018160ECE75B
:101F2000CB684A688968206800F09FFD2068816856
:101F300041F480418160E0E7CA684968206804F0A4
:101F400093FE5021206804F087FED6E7CA684968EE
:101F5000206804F09CFE6021206804F07DFECCE740
:101F6000CA684968206804F07FFE4021206804F0B8
:101F700073FEC2E722680146104604F06DFEBCE71E
:101F800010B586B0044614216846FEF7E6F90D49FF
:101F90002068884214D10C480021026842F00102F6
:101FA0000260006800F00100059008200090022007
:101FB000CDE90101CDE9031069460448FEF730FE82
:101FC00006B010BD000C0040303802400000024056
:101FD00070B504460D46002694F83C0001280FD049
:101FE000012084F83C006AB1042A1FD0082A32D0AC
:101FF0000C2A44D00126002084F83C00304670BDF5
:10200000022070BD2946206804F086FD20688169A1
:1020100041F0080181612068816921F0040181613A
:10202000206881692A6911438161E4E729462068B3
:1020300000F026FD2068816941F40061816120681B
:10204000816921F480618161206881692A6941EA9E
:1020500002218161CFE72946206804F095FD2068C0
:10206000C16941F00801C1612068C16921F0040122
:10207000C1612068C1692A691143C161BBE7294672
:10208000206804F0BDFD2068C16941F40061C161B0
:102090002068C16921F48061C1612068C1692A6931
:1020A00041EA0221C161A6E710B50446002C03D025
:1020B00094F83D0010B107E0012010BD002084F825
:1020C0003C00204600F01EF8022084F83D00211D4F
:1020D000206800F055FC012084F8460084F83E009A
:1020E00084F83F0084F8400084F8410084F84200FE
:1020F00084F8430084F8440084F8450084F83D00E7
:10210000002010BD08B500680649884208D106487D
:10211000016841F008010160006800F008000090CB
:1021200008BD0000000C00404038024010B50446D5
:10213000002909D004290AD008290BD094F84100BD
:1021400001280AD0012010BD94F83E00F8E794F869
:102150003F00F5E794F84000F2E70220D9B30429E4
:1021600047D0082948D084F841000122206800F0B7
:102170006DFC234A20682349904201D0884203D154
:10218000436C43F4004343642068904224D0B0F190
:10219000804F21D0A0F18042B2F580621CD0A0F126
:1021A0008042B2F5006217D0A0F18042B2F54062E1
:1021B00012D0884210D0A0F18041B1F5A0310BD0EF
:1021C000A0F18041B1F5C05106D0016841F0010194
:1021D0000160002010BD09E0816801F007010629B7
:1021E000F7D0016841F001010160F2E784F83E0098
:1021F000BBE784F83F00B8E784F84000B5E700008B
:10220000000001400004014030B504460D460022A4
:102210002946206800F01AFC206841F211118A104A
:10222000A0F18043B3F5803304D0A0F18043B3F52F
:10223000823309D1036A0B4206D1036A134203D1E8
:10224000436C23F4004343642068036A0B4206D1C5
:10225000016A114203D1016821F0010101600120EE
:102260003DB1042D08D0082D09D084F8410000208C
:1022700030BD84F83E00FAE784F83F00F7E784F8C1
:102280004000F4E770477047F8B5044622681068CC
:10229000D168536900F00F0CBCF1000F0AD110F0A7
:1022A000200F07D011F0200F04D02046BDE8F840E1
:1022B00004F07EBD0025BCF1000F75D003F0010CC9
:1022C00001F490765CEA06066ED010F0010F06D09D
:1022D00011F4807F03D0226C42F00102226410F0DE
:1022E000040F06D013F0010F03D0226C42F002025B
:1022F000226410F0020F06D013F0010F03D0226CFD
:1023000042F00402226410F0080F08D001F020020D
:1023100052EA0C0203D0226C42F008022264226CC2
:10232000002A35D010F0200F05D011F0200F02D078
:10233000204604F03DFD20684069C0F38010216C08
:1023400011F0080F00D148B3204604F0C4FD206806
:10235000406910F0400F1CD02068143050E8001F76
:1023600021F0400140E80012002AF5D1A06B60B1D5
:102370005C490165A06BFEF77DFB002808D0A06BCF
:10238000016D01B0BDE8F04008472046FFF77BFF34
:10239000F8BD2046FFF777FFF8BD05E0FFE72046D0
:1023A000FFF771FF2564F8BD236B012B7ED110F080
:1023B000100F7BD011F0100F7ED010685068009085
:1023C00050694FF0200310F0400F43D0A16B086814
:1023D000406880B20028E6D0A28D8242E3D9E08531
:1023E000C869B0F5807F2DD020680C3050E8001F00
:1023F00021F4807140E80012002AF5D120681430E1
:1024000050E8001F21F0010140E80012002AF5D138
:102410002068143050E8001F21F0400140E800120D
:10242000002AF5D184F83E30256320680C3050E84E
:10243000001F21F0100140E80012002AF5D1A06B26
:10244000FEF7C7FAA08DE18D401A81B22046FFF752
:1024500019FFF8BDA08DE18D401A81B2E08D0028F2
:10246000F7D00029F5D020680C3050E8002F22F476
:10247000907240E8002CBCF1000FF4D120681430B9
:1024800050E8002F22F0010240E8002CBCF1000FC0
:10249000F4D184F83E30256320680C3050E8002FDA
:1024A00022F0100240E80023002B00E004E0F3D10A
:1024B0002046FFF7E7FEF8BD10F0800F07D011F0BF
:1024C000800F04D02046BDE8F84004F0D5BC10F0E1
:1024D000400FF0D011F0400FEDD02046BDE8F8409D
:1024E00004F020BD3F6F000870B50446002C04D0F6
:1024F00094F83D00002510B106E0012070BD84F87D
:102500003C50204600F022F8242084F83D0020684A
:10251000C16821F40051C160204604F0CBFB206863
:10252000016921F4904101612068416921F02A018B
:1025300041612068C16841F40051C16025642020D8
:1025400084F83D0084F83E00002070BD2DE9F0477E
:1025500086B0044614216846FDF7FFFE5B495A4BDE
:1025600027680024594A10390225032658484FF09D
:10257000080A9F4232D1136843F480131360126833
:1025800002F4801205920A6842F004020A600A68A6
:1025900002F0040205920A6842F008020A60096823
:1025A00002AB01F0080105918114CDE900155746F1
:1025B00083E8D0006946FEF733FB0420CDE900052F
:1025C00002AB694683E8D0004248FEF729FB0122AE
:1025D00002213520FEF7C2FC352028E03B4BDFF816
:1025E000F8801B1D4FF0C00C4FF00709474523D161
:1025F000186840F010001860186800F0100005908E
:10260000086840F0020008600868CDE9024600F062
:102610000200CDE90490CDE900C569462F48FEF7D8
:10262000FFFA002201212520FEF798FC2520FEF765
:1026300087FC06B0BDE8F087DFF8A480474520D1CD
:10264000136843F480231360126802F48022059219
:102650000A6842F004020A60096802AB01F0040152
:1026600005914FF44061CDE9001583E850026946B9
:10267000FEF7D6FA002202212720FEF76FFC272062
:10268000D5E7184A9742D4D11A6842F020021A605E
:102690001A6802F0200205920A6842F004020A60F9
:1026A0000968CDE9024601F00401CDE904A1CDE9B4
:1026B00000C56946FEF7B4FA022211464720FEF72C
:1026C0004DFC4720B3E70000005000404038024076
:1026D00000080240000C02400010014000040240CB
:1026E000004800400014014090F83E30202B01D0FB
:1026F0000220704759B152B190F83C30012B08D0FC
:10270000012380F83C300023036300F0FBB9012073
:1027100070470220704700002DE9F0414E4A0168E1
:1027200091426AD14D4900F077FF050071D04B4CC2
:102730004B4E04F10A01E0884FF00008415CC829C3
:102740001DD0A08804F51762411BB07922F8101043
:10275000401CC0B2B0711E2801D31E20B071B4F964
:102760000400C0F57A70FA2803DAA4F80480A4F80B
:102770000680A088E080BDE8F04100F079BC374FCA
:102780000837384400F0D4FCE188ED1D0A19525D89
:102790009042E4D1381D085C022809D00328DED11C
:1027A000781D0A5C401C182A06D04A2A19D01BE062
:1027B000C81900F0C5FFD2E70A5C2A48012A01D0F7
:1027C00052B111E001222021FEF74FFB01221146F8
:1027D000254801F05BFCC2E700222021FEF745FB03
:1027E000BDE7085C012803D0C81900F0D1FFB6E7A7
:1027F00086F8058000F048FAB1E71C48814209D10B
:102800001B49A1F58F6000F0FFFD002822D1184977
:1028100017E01FE01748814208D11749A1F2326042
:1028200000F0F2FD002815D113490AE01348814257
:1028300010D11349A1F5D36000F0E6FD002809D1BD
:102840000F4906484A7ABDE8F041CC38891D121D6F
:1028500000F018B8BDE8F0810010014030030020FE
:102860000800002000080240B80A0020004800408C
:1028700020070020005000405208002000140140B2
:102880008409002090F83D30202B01D002207047B1
:10289000A9B1A2B190F83C30012B12D00162828420
:1028A000C28400210164212280F83D2080F83C1080
:1028B0000068C16841F08001C160002070470120BC
:1028C000704702207047000010B50D4A0068D11310
:1028D000904202D100220B480BE00B4A904203D1F8
:1028E00000224115094804E0094A904203D1002220
:1028F0000848FEF7BAFABDE8104000F0B9BB000086
:102900000048004000000240005000400008024023
:102910000014014000040240FEE7FEE770477047E4
:102920007047FEF7AFBA00000F48016841F470012C
:1029300001600E48016841F0010101600C4A00216C
:102940001160026822F4102222F080720260031DDE
:10295000084A1A60026822F4802202600648016078
:10296000064958060860704788ED00E000380240CC
:1029700008380240103000240C38024008ED00E016
:10298000F0B402682C4B2D4C2D4D2E4EDFF8B8C004
:1029900098420AD0B0F1804F07D0A04205D0A8429B
:1029A00003D0B04201D0604503D122F070024F68DD
:1029B0003A43984228D0B0F1804F25D0A04223D08E
:1029C000A84221D0B0421FD060451DD0A0F1804464
:1029D000B4F5A03418D0A0F18044B4F5A23413D0DB
:1029E000A0F18044B4F5A4340ED0A0F18044B4F535
:1029F000C05409D0A0F18044B4F5E05404D0A0F153
:102A00008044B4F5005403D122F44072CC682243D0
:102A10004C6922F08002224302608A68C2620A681E
:102A20008262984201D0604501D1096901630121A8
:102A30004161F0BC7047000000000140000400400C
:102A400000080040000C00400004014001F01F019C
:102A500001238B40D0F820C02CEA03030362036AF1
:102A600002FA01F1194301627047D0F808C02CF452
:102A70007F4C42EA0322114341EA0C018160704716
:102A800070B4026A22F010020262036A4268D0F84F
:102A900018C02CF4E04C2CF4407C0C684CEA042C5C
:102AA00023F020038C6843EA0413114C114DA0421B
:102AB00001D0A84206D123F08003CE6843EA061372
:102AC00023F04003A04201D0A84209D122F4806241
:102AD00022F400624C6942EA84028C6942EA840270
:102AE0004260C0F818C049688163036270BC7047D7
:102AF00000000140000401400148FFF7C5BB000091
:102B00002002002081628285C28500210164222288
:102B100080F83E2080F83C100169002904D001684B
:102B2000CA6842F48072CA6001684A6942F00102D0
:102B30004A610068C16841F02001C160002070470F
:102B40000148FFF7A1BB0000640200200148FFF725
:102B50009BBB0000A80200200148FFF795BB0000C6
:102B6000EC020020FEE700002DE9F0412749062392
:102B70003B2201F1580000F0FBFA244D244C294679
:102B80002888062340BA20806888432240BA6080A3
:102B9000A88840BAA08001F1580000F0E9FA6988DD
:102BA00028884ABAA98846BAA01D4BBAA0F152019A
:102BB00031F83C5F35442DB205804E88324412B264
:102BC00042808E8833441BB283802688CF883E445F
:102BD000268066880F893E446680A68849893144EC
:102BE000A18005F11401282900D8002502F1140163
:102BF0000580282900D8002203F1140142802829E9
:102C000000D800238380BDE8F0810000E0000020B0
:102C10005400002010B51B4C34F8300F404201B274
:102C2000A18160884042E081A08840422082E08803
:102C30004042608220894042A082B4F90A00C0F577
:102C40000060E082002000F083FAB4F90E10012049
:102C500000F07EFAB4F91010022000F079FAB4F90D
:102C60001210032000F074FAB4F91410042000F0DC
:102C70006FFAB4F91610052000F06AFA0A2004F879
:102C8000290C10BD080000202DE9F04387B0002476
:102C900000F0B4FE0028FBD118216846FDF75DFB6B
:102CA000344D354E4FF47A6932490E233B2201F1FF
:102CB000580000F05DFA287895F80D8000020FFAB0
:102CC00080FC6878641C4CEA000CA87824B20002EE
:102CD00007B2E87807432879000203B26879034312
:102CE000287A000202B2687A0243A87A000201B28E
:102CF000E87A0143287B000200B240EA0800DDF8D0
:102D00000080C444CDF800C0DDF804C067440197DA
:102D1000029F3B440293039B1A440392049A11447A
:102D20000491059908440590B089401CB0810220A7
:102D3000FDF7B2FE4C45B7DB009890FBF4F0F0864F
:102D4000019890FBF4F03087029890FBF4F07087C4
:102D5000039890FBF4F03086049890FBF4F07086B2
:102D6000059890FBF4F0B086FFF754FF07B0BDE87C
:102D7000F0830000E00000200800002010B510489B
:102D80002DED028BFDF772FD0A210D48FDF70AFDBE
:102D90000B48FDF7A9FC05F08DFE9FED0A1B53ECD7
:102DA000112B05F0D7FE41EC180B0548FDF7F2FD9D
:102DB000B0EE480AF0EE680ABDEC028B10BD0000D0
:102DC000F0000020D9CEF753E3A5AB3F38B50C4651
:102DD000054675220123694600F0CAF96B2180225D
:102DE000284600F0F5FA1920FDF756FE10226A2158
:102DF000284600F0EDFA0520FDF74EFE1A21227854
:102E0000284600F0E5FA0520FDF746FEA0781B21D4
:102E1000C006020E284600F0DBFA0520FDF73CFE56
:102E20001D216278284600F0D3FA0520FDF734FE14
:102E3000E0781C21C006020E284600F0C9FA0520E1
:102E4000FDF72AFE002038BD70B5114D012128463E
:102E5000FDF7FCFF0F4C80F001000221E0702846D6
:102E6000FDF7F4FF80F001004000A0700421284627
:102E7000FDF7ECFF80F0010080006070082128461B
:102E8000FDF7E4FF80F00100C000207070BD00007D
:102E9000000802400800002070B50A4C01221021F1
:102EA0002046FDF7E2FF4FF4FA752846FDF7F4FDE2
:102EB000002210212046FDF7D8FF2846BDE87040CB
:102EC000FDF7EABD0000024010B51A4C2DED028B53
:102ED000FFF754FFB0EE408AF0EE608A9FED160BCC
:102EE00051EC180B53EC102B05F0F8FD208901D89C
:102EF000401C01E0A0EB5000208180B2C82808D31C
:102F00000C210F48FFF712F90E493220086001200A
:102F100009E06189012907D10A2805D20C21084856
:102F2000FFF772F90020608184ED1A8BBDEC028BF3
:102F300010BD000008000020000000000000264036
:102F4000D8010020340C00402DE9F0410646012450
:102F50000D466704002003F00BFCAB2812D00A4A90
:102F600007EB004102EB0042891C08E01088B042E8
:102F700004D132F8020C2880002402E0121F8A4299
:102F8000F4D82046BDE8F081FEFF020010B52A4CBF
:102F900001222DED048B114620469FED258B01F07B
:102FA00075F89FED263B9FED272B9FED281B9FED8E
:102FB000290B204600F0B2FD9FED289B53EC182B07
:102FC00051EC190B05F0C4FE01D284ED0A9B84ED8F
:102FD000488B84ED4A8B184884ED4C8B0021A0F679
:102FE000281401706068401C05F064FD41EC180B6A
:102FF000FEF7BEF8400005F05DFD53EC182B05F020
:103000008DFB41EC100B53EC102B9FED160B51EC8C
:10301000100B05F083FB154AC2E918012046FEF7A4
:10302000F5FE216800204862BDEC048B10BD000055
:103030000000000000000000B80A002000000000AE
:103040000000F43F0000000000002440333333331D
:10305000333305409A9999999999014000000000ED
:1030600000000840000000000000F03F08000020C1
:1030700070B5294CA07900284DD0284890F83D0023
:10308000202848D12548883890F83D00202842D192
:103090002248443090F83D0020283CD12048B4F923
:1030A0002E10012200EB4100D60341881B489030CE
:1030B0000D1831461B48FDF7D8FE012251021A486F
:1030C000FDF7D3FE012231461848FDF7CEFEEA781F
:1030D00029461248121DFFF7D5FBEA780F4829460A
:1030E0008838121DFFF7CEFBEA780C482946443099
:1030F000121DFFF7C7FBA079401E10F0FF00A07162
:10310000E18D01F1010109B2E18501D01E2902D151
:103110004FF0FF30E08570BD08000020A8020020BD
:10312000A00C002000000240000802400004024001
:1031300010B5C27800230221D21C04E0445C491C73
:103140002344DBB2C9B28A42F8D8D843C0B210BD1A
:1031500070B50C46054689B203F038FB802805D1CE
:10316000A1B22846BDE8704003F0A6BA70BD0000C9
:10317000F8B5054642F080000E4F0C468DF8000071
:103180001E46002210213846FDF76FFE0A23012259
:1031900069462846FEF7CDFB0A23324621462846DB
:1031A000FEF710FB012210213846FDF75EFE0020DD
:1031B000F8BD0000000802402DE9F04779482DEDE8
:1031C0000E8BA0F1520484B0B0F900A0801FB4F9B6
:1031D0002620B0F90470B0F90080B0F90260801DBB
:1031E0009245B0F90450B0F9020013D1B4F9281097
:1031F00088420FD1B4F92A108D420BD1B4F91A20AC
:10320000904507D1B4F91C108E4203D1B4F91E10B9
:103210008F427DD0A4F826A020856585A4F81A8069
:10322000A683E78305F02FFC9FED5F8B53EC182BF3
:1032300005F074FADFF86C9141EC190B09F12E09D5
:10324000CAF1000005F01FFC53EC182B05F066FADC
:1032500041EC1E0B284605F016FC53EC182B05F02C
:103260005DFA41EC1D0B304605F00DFC9FED508BD7
:1032700053EC182B05F06EFC41EC1C0BC8F1000060
:1032800089ED02CB05F0FFFB53EC182B05F062FC37
:1032900041EC1B0B384689ED04BB05F0F4FB53EC05
:1032A000182B05F057FC41EC1A0B89ED06AB9FED8E
:1032B000428B51EC190B53EC182B05F02FFA41EC13
:1032C000190B53EC182B89ED089B51EC1E0B05F0E4
:1032D00025FA41EC1E0B53EC182B89ED0AEB51EC4F
:1032E0001D0B05F01BFA41EC180B354889ED0C8BD2
:1032F0000568686A05F0DEFB94ED181B53EC112B92
:1033000005F028FC41EC100B002084ED160B00E0CA
:1033100042E068629FED2B7BB0EE4A6A8DED027B46
:103320008DED007BF0EE6A6AB0EE4B5AF0EE6B5A10
:10333000B0EE4C4AF0EE6C4AB0EE483AF0EE683A25
:10334000B0EE4E2AF0EE6E2AB0EE491AF0EE691A8F
:103350001E4800F0B5FE1D4D95F8E10110B9284654
:1033600000F0B4FC95ED700B184D84ED1C0B95F836
:10337000E10110B9284600F0A9FC95ED6E0B84ED33
:103380001E0B124C94F8E10110B9204600F09EFC8F
:1033900094ED6C0B89ED000B04B0BDEC0E8BBDE819
:1033A000F08700005A000020666666666666304058
:1033B000000000000000403FF8C1631ADCA54C404B
:1033C000900100200000000000000000B80A00206A
:1033D00038B50C4D8DF8001004468DF80120002200
:1033E00010212846FDF741FD0A23022269462046A6
:1033F000FEF79FFA012210212846FDF736FD002036
:1034000038BD00000008024010B50C460122891C9E
:10341000FFF76AF948BBA288A01DA1781154A088C3
:10342000401CA0806178002031B101290CD0022914
:1034300010D0032919D112E0A179FF2901D101206F
:1034400006E06070A08010E0E179FF29F9D1022048
:1034500060700AE0217AFF29F3D00320F8E7627A4E
:1034600021788A4203D9491C2170012010BD2070A7
:103470006070A080002010BD2DE9F04F5E492DED59
:10348000048BA1F1520483B0488800F500402084E9
:103490008246B1F90000C0F5004060848346888808
:1034A000891F00F50040A0848146488800F500404F
:1034B000A0820190B1F90000C0F50040E0820090C8
:1034C000888800F50040208380469FED4C9B94ED5A
:1034D0001C0B53EC192B51EC100B05F06BF89FED06
:1034E000498B53EC182B05F035FB05F09FFAE08172
:1034F00094ED1E0B074653EC192B51EC100B05F005
:1035000059F853EC182B05F025FB05F08FFA2082B3
:10351000064604F1800053EC192B90ED000B51ECA2
:10352000100B05F047F853EC182B05F013FB05F0D2
:103530007DFA9FED360B608253EC102B94ED1A0B45
:10354000054651EC100B05F005FB05F06FFA31490B
:103550002071024681F800A04FEA1A20487081F8D5
:1035600002B04FEA1B20C87081F804904FEA19207E
:103570004871019888710198000AC8710098087212
:103580000098000A487281F80A804FEA1820C87231
:103590000F73380A48738E73300AC8730D74280A83
:1035A0004874207863781844A3781844E378184462
:1035B000887781F83220E07981F83C0094F83C006B
:1035C00081F83D0094F83E0081F83E0094F84000F8
:1035D00081F83F0094F8420081F8400094F84400DC
:1035E00081F8410094F8460081F8420003B0BDEC38
:1035F000048BBDE8F08F00005A000020182D4454C1
:10360000FB210940000000000088C34000000000CA
:1036100000002440400D002070B50C460122FFF749
:1036200063F808BBA38804F1080221789954A088A4
:10363000401CA080A178002031B101290DD00229C1
:1036400013D0032922D118E0E1888A5CFF2A01D136
:10365000012008E0A070A18018E0E1880F4A8A5C90
:10366000FF2AF7D10220A07010E00C4AE188521C1A
:103670008A5CFF2AEED00320F5E7084BE2889B1C0A
:103680006178D55C8D4203D9491C6170002070BD02
:103690006070A070D05C001DC0B270BD3903002006
:1036A00000210170417081708180C18070470000ED
:1036B00030B593B030216846FCF74FFE14210CA8BA
:1036C000FCF74BFE1C480025016841F08051016069
:1036D000006800F0805011901848016841F4804162
:1036E00001600068022400F48040119001200090E5
:1036F000000401908001CDE9064008AA0420A02121
:1037000082E813000B906846FDF788FD00B1FEE7E4
:103710000CA90F2081E831004FF4A0500F904FF416
:103720008050109005210CA8FDF75EFC002800D009
:10373000FEE713B030BD000040380240007000408A
:1037400070B5817904461148891C00F16402C1708A
:103750000021017106E0637955185B5D4518491C2D
:103760006B7149B2A3798B42F5DC0848FFF7E0FCA6
:103770000649A279491D5054A279BDE87040491FFD
:10378000A1F67820921DFFF77DB80000DC0C002028
:1037900030B50021064A06E04318447955189B7954
:1037A000491C6355C9B2C378DB1E8B42F4DC30BDC3
:1037B000400D00202DE9F04F87B000244FF4003673
:1037C00005943188651E4FF4103ABAF800004FF0A6
:1037D000060B01274FF00208CDF808B00094CDE9A0
:1037E00003782B0C544A4FF0070900296AD0A1F640
:1037F000EE61B1F5604122D001F6EF61B1F5005FF5
:103800001AD140B1A0F56E41EE3915D1304602F023
:10381000CBFF38B10CE0304687E005A96846FDF7DC
:103820004FF949E005A96846FDF74AF9002846D155
:103830000022134651463CE000F0E0F83CE040B185
:103840009842F9D15046CDF8089002F0ADFF38B358
:103850002CE09346F2883BF81400824200D125B256
:10386000AC420DD03549FFF76FFB012808D0334833
:10387000008881B23BF8140002F0A8FF00281ED196
:10388000641CA4B2062CE5D3002213463146012065
:10389000FDF76CF9002812D15046CDF8089042E0AF
:1038A00005A96846FDF70CF9002808D10022134647
:1038B00031460120FDF75AF9002800D1002007B059
:1038C000BDE8F08F0028B7D0984203D15046CDF81C
:1038D00008902AE04FEA0209BAF8061039F81420D5
:1038E000914200D125B2AC420ED014491046FFF7E8
:1038F0002BFB012808D01148008881B239F8140048
:1039000002F064FF0028DAD1641CA4B2062CE3D3D1
:103910000022134651460120FDF728F90028CED198
:103920003046CDF808B0CDE9037802F03DFF00281D
:103930003FF473AFC2E70000D00000200000002079
:10394000234890F83D1021290BD10168CA6812065E
:1039500007D4C28C808C824203D1C86840F08000BA
:10396000C8601B48443090F83D1021290BD10168F4
:10397000CA68120607D4C28C808C824203D1C86800
:1039800040F08000C8601248443890F83D1021296A
:103990000BD10168CA68120607D4C28C808C82429F
:1039A00003D1C86840F08000C8600948883090F8AA
:1039B0003D1021290BD10168CA68120607D4C28CB8
:1039C000808C824203D1C86840F08000C860704794
:1039D00064020020074810B50021017041700321E6
:1039E0008170C170FFF758FABDE8104001490248E4
:1039F000FFF7ECB9500000203801002010B586B068
:103A000000200590009006200290012003900220E3
:103A100004040490204602F0C7FE28B905A96846B0
:103A2000FDF74EF8002815D100221346214601204B
:103A3000FDF79CF800280DD1072002904FF41030BC
:103A400002F0B2FE28B905A96846FDF739F800284A
:103A500000D1002006B010BD70B50D462DED048BD1
:103A600004469FED2A8B9FED2B9BB0EE481AF0EE9B
:103A7000681AB0EE413AF0EE613AB0EE412AF0EE4B
:103A8000612AB0EE490AF0EE690A00F089F8204692
:103A900000F01CF9204600F0E9F92DB184ED488BC7
:103AA00084ED4A8B84ED4C8B5FF0000004EBC00189
:103AB000401C81ED3C8B81ED428B81ED4E8B81ED85
:103AC000548B0328F2DB002004EBC001401C81ED85
:103AD000148B81ED1C8B81ED2C8B81ED348B0428B4
:103AE000F2DB84ED149B84ED1C9B002004EBC001F1
:103AF000401C81ED5A8B0928F8DB84ED5A9B84ED3C
:103B0000629B84ED6A9BBDEC048B70BD00000000DD
:103B100000000000000000000000F03F10B5044667
:103B20002DED0A8BB0EE40CAF0EE60CAB0EE439ABB
:103B3000F0EE639AB0EE42AA9FED178BF0EE62AA08
:103B4000B0EE41BAF0EE61BA53EC182B51EC1C0BFD
:103B500005F0FEF80AD253EC182B51EC1B0B05F0C4
:103B6000F7F803D284ED02CB84ED04BB53EC182BA1
:103B700051EC1A0B05F0ECF80AD253EC182B51EC6F
:103B8000190B05F0E5F803D284ED06AB84ED089B34
:103B9000BDEC0A8B10BD000000000000000000001A
:103BA00010B504462DED108BB0EE439AF0EE639AFB
:103BB000B0EE42AAF0EE62AAB0EE41BAF0EE61BAFF
:103BC000B0EE40CAF0EE60CA9FED3AEB53EC192B11
:103BD00051EC190B04F0BEFF41EC1F0B53EC1A2BF8
:103BE00051EC1A0B04F0B6FF41EC1D0B53EC1B2BF0
:103BF00051EC1B0B04F0AEFF41EC180B53EC1C2BEB
:103C000051EC1C0B04F0A6FF53EC182B04F0D2FC73
:103C100053EC1D2B04F0CEFC53EC1F2B04F0CAFC1C
:103C20009FED260B41EC180B53EC102B04F056FFC4
:103C30000AD284ED24EB9FED230B84ED260B84ED5B
:103C4000280B84ED2A0B2CE0B0EE480AF0EE680A4F
:103C500003F01AFF53EC102B51EC1E0B04F05EFD29
:103C600041EC180B53EC1C2B04F074FFE4E9240125
:103C700053EC1B2B51EC180B04F06CFFC4E9020150
:103C800053EC1A2B51EC180B04F064FFC4E9040147
:103C900053EC192B51EC180B04F05CFFC4E906013E
:103CA000903C002084F8E10184F8E201BDEC108B27
:103CB00010BD0000000000000000F03FA78EA89992
:103CC000C257F33A000000000000000010B504469F
:103CD0002DED0A8B9FED5DAB9FED5E9B90ED260B6E
:103CE00090ED2A1B53EC102B51EC110B04F032FF1A
:103CF00094ED281B94ED240B41EC180B53EC112B85
:103D000051EC100B04F026FF53EC182B05F02EF9A4
:103D10009FED521B53EC112B04F01CFF41EC180BD0
:103D200053EC1A2B05F014F804D8B0EE4A0AF0EE62
:103D30006A0A0FE053EC192B51EC180B04F0CEFE7D
:103D400004D8B0EE490AF0EE690A03E0B0EE480A82
:103D5000F0EE680A03F0B0F984ED6E0B94ED288B59
:103D600053EC182B51EC180B04F0F4FE94ED2AAB35
:103D700041EC190B53EC1A2B51EC1A0B04F0EAFE30
:103D800053EC192B04F016FC9FED36BB53EC1B2BA8
:103D900005F014F894ED260B41EC1C0B53EC182B9A
:103DA00051EC100B04F0D6FE94ED240B41EC180BF3
:103DB00053EC1A2B51EC100B04F0CCFE53EC182BE7
:103DC00004F0F8FB41EC100BB0EE4C1AF0EE6C1A5C
:103DD00003F08EFC84ED6C0B94ED268B53EC182BCA
:103DE00051EC180B04F0B6FE53EC192B04F0E2FB77
:103DF00053EC1B2B04F0E2FF94ED2A1B94ED280BEF
:103E000041EC190B53EC112B51EC100B04F0A2FEFA
:103E100094ED240B41EC1A0B53EC182B51EC100BC6
:103E200004F098FE53EC1A2B04F0C4FB41EC100B89
:103E3000B0EE491AF0EE691A03F05AFC84ED700BEB
:103E4000012084F8E101BDEC0A8B10BD00000000E8
:103E50000000F03F000000000000F0BF0000000084
:103E600000000040000000000000E03F10B50446E4
:103E70002DED108B9FED759B9FED768B9FED77BBA6
:103E80009FED78AB90ED241B90ED2A0B03F030FCF6
:103E900053EC192B51EC100B04F05CFE41EC100BB1
:103EA00084ED720B9FED711B53EC112B04F050FF4E
:103EB00009D294ED720B53EC182B51EC100B05F05A
:103EC00055F8C4E9720194ED720B9FED6A1B51EC39
:103ED000100B53EC112B04F001FE09D894ED720B7A
:103EE00053EC182B51EC100B04F064FBC4E9720185
:103EF00094ED2AFB94ED26EB53EC1F2B51EC1E0B9B
:103F000004F028FE94ED24DB94ED28CB41EC180B53
:103F100053EC1D2B51EC1C0B04F01CFE53EC182B26
:103F200005F024F853EC192B04F014FE41EC180BA7
:103F300053EC1D2B51EC1E0B04F00CFE41EC1D0B41
:103F400053EC1F2B51EC1C0B04F004FE53EC1D2B07
:103F500004F030FB53EC192B04F0FCFD41EC190B81
:103F600053EC1B2B51EC180B04F0F2FE04D8B0EE0E
:103F70004B8AF0EE6B8A0AE053EC1A2B51EC180BCB
:103F800004F0ACFD03D8B0EE4A8AF0EE6A8AB0EED7
:103F900048CAF0EE68CA53EC1B2B51EC190B04F025
:103FA000D7FE04D8B0EE4B8AF0EE6B8A0FE053ECEC
:103FB0001A2B51EC190B04F091FD04D8B0EE4A8A8B
:103FC000F0EE6A8A03E0B0EE498AF0EE698AB0EE5C
:103FD0004C0AF0EE6C0A03F06FF884ED740BB0EE4F
:103FE000480AF0EE680A03F067F884ED760B94ED6A
:103FF000280B53EC102B51EC100B04F0ABFD94ED9F
:10400000260B41EC180B53EC102B51EC100B04F069
:10401000A1FD53EC182B04F0CDFA9FED181B53ECC7
:10402000112B04F0CBFE9FED171B53EC112B04F06A
:104030008FFE01D8012000E0002084F8E00101207B
:1040400084F8E201BDEC108B10BD00000000000000
:1040500000000040182D4454FB21194000000000CE
:104060000000F03F000000000000F0BF182D445495
:10407000FB210940182D4454FB2109C00000000019
:104080000000E03F000000000000000070B50D4699
:1040900004461146FFF7E0FC1DB120469FED040BDE
:1040A00002E09FED050B2046BDE8704002F04EB9DE
:1040B0000000000000000000000000000000F03FD1
:1040C000F1B504462DED100B2DED108B8EB0B0EE3A
:1040D00047AAF0EE67AAB0EE46BAF0EE66BAB0EEC6
:1040E00045CAF0EE65CAB0EE44DA9DED36EB9DEDC3
:1040F00034FBF0EE64DA9FEDFD9B9FEDFE8B90EDBF
:10410000120B53EC182B51EC100B04F0E7FC29D2E6
:1041100094ED0A0B53EC102B9DED1E0B51EC100B84
:1041200004F0FCFA94ED121B53EC112B04F042FA4C
:1041300041EC100B53EC192B84ED120B04F0CEFC68
:1041400001D884ED129B94ED120B53EC182B51EC1B
:10415000100B04F0FDFD05D8B0EE480AF0EE680A39
:1041600084ED120B94ED129B53EC192B9FEDE10B98
:1041700051EC100B04F0FAFE0E4646EC100B94EDD9
:10418000061B054653EC112B51EC100B04F0E2FC1E
:1041900094ED020B41EC180B53EC102B51EC190B66
:1041A00004F0D8FC53EC182B04F004FA41EC100B8B
:1041B0008DED0A0B46EC105B94ED081B51EC100BD7
:1041C00053EC112B04F0C6FC94ED040B41EC180BDE
:1041D00053EC102B51EC190B04F0BCFC53EC182BD6
:1041E00004F0E8F941EC100BB0EE4E5A8DED060BE1
:1041F00094ED3C0BF0EE6E5A84ED420B94ED3E0BC9
:10420000B0EE4F4A84ED440B94ED400BF0EE6F4A54
:1042100084ED460B94ED2C0BB0EE4A3A84ED340B52
:1042200094ED2E0BF0EE6A3A84ED360B94ED300BE4
:10423000B0EE4B2A84ED380B94ED320BF0EE6B2A86
:1042400084ED3A0BB0EE4C1AF0EE6C1AB0EE4D0A5B
:10425000F0EE6D0A204600F097FB94ED1AFB94ED0A
:104260002ABB53EC1F2B51EC1B0B04F073FC41ECED
:10427000110B8DED041B94ED18EB94ED28AB53EC72
:104280001E2B51EC1A0B04F065FC41EC110B8DED6B
:10429000021B94ED16DB94ED269B53EC1D2B51EC89
:1042A000190B04F057FC41EC110B8DED001B94ED44
:1042B00014CB94ED248B53EC1C2B51EC180B04F015
:1042C00049FC9DED001B53EC112B04F073F99DED9F
:1042D000021B53EC112B04F06DF99DED041B53EC04
:1042E000112B04F067F941EC100B53EC1E2B84EDFD
:1042F0001C0B8DED080B51EC1B0B04F02BFC41EC5F
:10430000100B53EC1F2B8DED040B51EC1A0B04F02A
:1043100021FC41EC100B53EC1C2B8DED020B51ECEE
:10432000190B04F017FC41EC100B53EC1D2B8DED19
:10433000000B51EC180B04F00DFC9DED000B53EC41
:10434000102B04F013FE9DED020B53EC102B04F028
:104350000DFE9DED040B53EC102B04F02BF941ECFA
:10436000100B53EC1D2B84ED1E0B8DED040B51EC4B
:104370001B0B04F0EFFB41EC100B53EC1C2B8DEDF1
:104380000C0B51EC1A0B04F0E5FB41EC100B53EC59
:104390001F2B8DED020B51EC190B04F0DBFB41ECF4
:1043A000100B53EC1E2B8DED000B51EC180B04F091
:1043B000D1FB9DED000B53EC102B04F0FBF89DEDB1
:1043C000020B53EC102B04F0D1FD9DED0C0B53ECC4
:1043D000102B04F0CBFD41EC100B53EC1C2B84EDA7
:1043E000200B8DED020B51EC1B0B04F0B3FB41ECE9
:1043F000100B53EC1D2B8DED000B51EC1A0B04F040
:10440000A9FB41EC1C0B53EC1E2B51EC190B04F0D7
:10441000A1FB41EC1D0B53EC1F2B51EC180B04F0CE
:1044200099FB53EC1D2B04F0A1FD53EC1C2B04F065
:10443000C1F89DED000B53EC102B04F097FD41ECFF
:104440001E0B9FED2E0B84ED22EB53EC102B9DEDFC
:104450000A0B51EC100B04F07DFB9DED081B53EC97
:10446000112B04F077FB9DED040B41EC1C0B53EC7E
:10447000102B04F06FFB41EC1F0B51EC1C0B84ED77
:104480003CFB9DED020B53EC102B04F063FB41EC65
:104490001D0B53EC1E2B84ED3EDB51EC1C0B04F08A
:1044A00059FB41EC1C0B9FED170B84ED40CB53ECFB
:1044B000102B9DED1E0B51EC100B04F04BFB9DEDF2
:1044C000061B53EC112B04F029F994ED420B41EC3F
:1044D0001E0B53EC102B51EC1F0B04F06BF853EC3C
:1044E0001E2B04F037FB94ED481B0FE0000000008A
:1044F00000000000000000000000F03F000000008D
:1045000000000040F168E388B5F8E43E53EC112B5D
:1045100004F054FC41EC100B51EC1D0B84ED480BE6
:104520008DED040B94ED440B53EC102B04F042F88A
:1045300053EC1E2B04F00EFB94ED4A1B53EC112B95
:1045400004F03CFC41EC100B51EC1C0B84ED4A0BCD
:104550008DED020B94ED460B53EC102B04F02AF872
:1045600053EC1E2B04F0F6FA94ED4C1B53EC112B7C
:1045700004F024FC41EC100B84ED4C0B8DED000B92
:104580009DED040B53EC102B9DED200B51EC100B0B
:1045900004F0ECFC53EC1F2B04F00CF841EC1E0B68
:1045A00084ED4EEB9DED020B53EC102B9DED220B99
:1045B00051EC100B04F0DAFC53EC1D2B03F0FAFF66
:1045C00041EC1D0B84ED50DB9DED000B53EC102BEB
:1045D0009DED240B51EC100B04F0C8FC53EC1C2B8C
:1045E00003F0E8FF41EC1C0B51EC1B0B84ED52CBAC
:1045F00053EC1C2B04F0AEFA41EC100B53EC1D2BCA
:104600008DED000B51EC1A0B04F0A4FA41EC1F0BDA
:1046100051EC190B03F0C1FF53EC1E2B04F09AFA76
:1046200053EC1F2B04F0A2FC9DED000B53EC102B60
:1046300004F09CFC41EC100B53EC1D2B84ED2C0B77
:104640008DED000B51EC1B0B04F084FA41EC100BC8
:1046500053EC1C2B8DED020B51EC1A0B04F07AFA83
:1046600041EC1F0B53EC1E2B51EC180B04F072FAAB
:1046700053EC1F2B03F09EFF9DED020B53EC102B10
:1046800004F074FC41EC100B53EC1E2B84ED2E0B4C
:104690008DED040B51EC1B0B04F05CFA41EC100B9C
:1046A00053EC1C2B8DED020B51EC190B04F052FA5C
:1046B00041EC1F0B53EC1D2B51EC180B04F04AFA84
:1046C00053EC1F2B04F052FC9DED020B53EC102B0E
:1046D00003F070FF41EC1F0B53EC1E2B84ED30FBFD
:1046E00051EC1A0B04F036FA41EC1E0B53EC1D2B67
:1046F00051EC190B04F02EFA41EC1D0B53EC1C2B62
:1047000051EC180B04F026FA53EC1D2B03F052FF6A
:1047100053EC1E2B04F02AFC41EC1D0B84ED32DB24
:104720009FED6F0B53EC102B9DED1E0B51EC100BFE
:1047300004F010FA94ED340B41EC1C0B53EC102BED
:104740009DED000B51EC100B03F034FF53EC1C2BD0
:1047500004F000FA53EC182B03F02CFF41EC180B7B
:1047600084ED248B94ED360B53EC102B9DED040B54
:1047700051EC100B03F01EFF53EC1C2B04F0EAF974
:1047800053EC192B03F016FF41EC190B51EC1F0BE6
:1047900084ED269B94ED380B53EC102B03F00AFFAD
:1047A00053EC1C2B04F0D6F953EC1A2B03F002FF48
:1047B00041EC1A0B51EC1D0B84ED28AB94ED3A0B38
:1047C00053EC102B03F0F6FE53EC1C2B04F0C2F953
:1047D00053EC1B2B03F0EEFE41EC100B84ED2A0B87
:1047E00053EC102B04F0B6F941EC1B0B53EC1A2BD5
:1047F00051EC1A0B04F0AEF941EC1A0B53EC192BE7
:1048000051EC190B04F0A6F941EC190B53EC182BE1
:1048100051EC180B04F09EF953EC192B03F0CAFE6F
:1048200053EC1A2B03F0C6FE53EC1B2B03F0C2FE15
:104830009FED2D0B41EC180B53EC102B04F04EF9AF
:104840000AD20EB02046BDEC108B11B001221146E9
:10485000BDE8F040FFF71ABCB0EE480AF0EE680A77
:1048600003F012F953EC102B1FEDDE0B51EC100B83
:1048700003F054FF41EC180B94ED240B53EC182B70
:1048800051EC100B903404F065F9C4E9000194ED8B
:10489000020B53EC182B51EC100B04F05BF9C4E93C
:1048A000020194ED040B53EC182B51EC100B04F0A7
:1048B00051F9C4E9040194ED060B53EC182B51ECAB
:1048C000100B04F047F9C4E90601002084F85101F7
:1048D00084F852010EB0BDEC108B11B0F0BD000099
:1048E000000000000000D03FA78EA899C257F33AFD
:1048F00070B504462DED048B00200D4620709FED11
:10490000148B9FED153B9FED162B9FED171B9FED15
:10491000180B2046FFF702F99FED179B53EC182B5D
:1049200051EC190B04F014FA01D284ED0A9B9FEDAF
:10493000140B294684ED0C0B84ED0E8B84ED108B4B
:104940002046BDEC048B0122BDE87040FFF79EBB02
:104950000000000000000000000000000000F43F24
:10496000000000000000244033333333333305406C
:104970009A99999999990140000000000000084017
:10498000000000000000F03FF1B504462DED0C0BD7
:104990002DED108BB0EE42BAF0EE62BA9AB0B0EEE6
:1049A00044CAF0EE64CAB0EE43DAF0EE63DAB0EE79
:1049B00041AAF0EE61AAB0EE40EAF0EE60EA9FEDA7
:1049C000FE8B53EC1B2B51EC1B0B04F0C3F841EC9A
:1049D0001F0B53EC1A2B51EC1A0B04F0BBF841ECF3
:1049E000190B53EC1E2B51EC1E0B04F0B3F853ECD7
:1049F000192B03F0DFFD53EC1F2B03F0DBFD41EC23
:104A0000190B9FEDEF0B53EC102B04F067F802D25B
:104A100084ED148BFDE3B0EE490AF0EE690A03F071
:104A200033F853EC102B51EC180B03F077FE41ECEC
:104A3000190B51EC1E0B53EC192B04F08BF841ECC5
:104A40001E0B53EC192B84ED66EB51EC1A0B04F0A2
:104A500081F841EC1A0B53EC192B84ED68AB51EC47
:104A60001B0B04F077F841EC190B84ED6A9B9DED6C
:104A7000340B53EC192B51EC100B04F06BF841EC98
:104A80001F0B53EC1A2B51EC1C0B04F063F841EC98
:104A90001B0B53EC1E2B51EC1D0B04F05BF853EC7D
:104AA0001B2B03F087FD53EC1F2B03F083FD41EC20
:104AB0001B0B53EC1E2B04F04DF853EC1D2B04F094
:104AC0007DF941EC1D0B53EC1A2B51EC1B0B04F040
:104AD00041F853EC1C2B04F071F941EC1C0B53EC26
:104AE000192B51EC1B0B04F035F89DED341B53ECE6
:104AF000112B04F063F941EC1B0B53EC1A2B04F05F
:104B000029F841EC1F0B53EC192B51EC1C0B04F052
:104B100021F853EC1F2B04F029FA41EC100B53EC55
:104B2000192B84ED540B8DED060B51EC1D0B04F08D
:104B300011F841EC190B53EC1E2B51EC1B0B04F03C
:104B400009F853EC192B04F011FA41EC100B53EC5B
:104B50001E2B84ED560B8DED0A0B51EC1C0B03F054
:104B6000F9FF41EC190B53EC1A2B51EC1D0B03F020
:104B7000F1FF53EC192B04F0F9F941EC1E0B53EC47
:104B80001D2B84ED58EB94ED0CAB51EC1A0B03F09C
:104B9000E1FF94ED0E9B9DED060B41EC1F0B53ECDA
:104BA000102B51EC190B03F0D5FF53EC1F2B03F026
:104BB00001FD41EC100B53EC1C2B84ED5A0B8DEDD9
:104BC000040B51EC1A0B03F0C5FF9DED0A0B41ECF1
:104BD0001F0B53EC102B51EC190B03F0BBFF53ECE4
:104BE0001F2B03F0E7FC41EC100B53EC1B2B84ED67
:104BF0005C0B8DED080B51EC1A0B03F0ABFF41EC95
:104C00001F0B53EC1E2B51EC190B03F0A3FF53ECBD
:104C10001F2B03F0CFFC41EC100B51EC1A0B84ED71
:104C20005E0B8DED0C0B9DED060B53EC102B03F082
:104C300091FF41EC1F0B53EC1D2B51EC190B03F0B2
:104C400089FF53EC1F2B04F091F941EC1D0B51EC43
:104C50001A0B84ED60DB9DED0A0B53EC102B03F077
:104C600079FF41EC1F0B53EC1C2B51EC190B03F09B
:104C700071FF53EC1F2B04F079F941EC1C0B53EC42
:104C80001E2B84ED62CB51EC1A0B03F063FF41EC59
:104C90001A0B53EC1B2B51EC190B03F05BFF53EC7D
:104CA0001A2B04F063F941EC1A0B84ED64AB9DED13
:104CB0000C0B53EC102B51EC100B03F04BFF9DED44
:104CC000080B41EC190B53EC102B51EC100B03F0BB
:104CD00041FF9DED040B41EC1B0B53EC102B51ECF1
:104CE000100B03F037FF53EC1B2B03F063FC53EC6A
:104CF000192B03F05FFC41EC190B53EC1A2B51EC10
:104D00001A0B03F027FF41EC1A0B53EC1C2B51EC50
:104D10001C0B03F01FFF41EC1B0B53EC1D2B51EC44
:104D20001D0B03F017FF53EC1B2B03F043FC53EC5C
:104D30001A2B03F03FFC9FED220B41EC1A0B53ECB6
:104D4000102B51EC190B03F0C9FE08D351EC1A0BD0
:104D50009FED1B0B53EC102B03F0C0FE7DD220788F
:104D600000287BD001287AD002287FF451AE94ED40
:104D70002ABB53EC1B2B51EC1B0B03F0EBFE94ED09
:104D8000289B41EC1A0B53EC192B51EC190B03F037
:104D9000E1FE53EC1A2B03F00DFC9FED0B1B53ECC3
:104DA000112B04F00BF894ED24DB41EC1A0B53ECBF
:104DB0001D2B51EC1B0B0BE0000000000000F03F2E
:104DC000A78EA899C257F33A000000000000E03F08
:104DD00003F0C0FE94ED26CB41EC1E0B53EC192BD7
:104DE00051EC1C0B03F0B6FE53EC1E2B04F0BEF886
:104DF00041EC100B53EC1D2B8DED0E0B51EC190BF0
:104E000003F0A8FE41EC190B53EC1B2B51EC1C0BCF
:104E100003F0A0FE53EC192B03F0CCFB94ED6ADBFE
:104E200041EC1E0B53EC1D2B03F094FE94ED68FB3C
:104E30009DED0E0B41EC1B0B53EC1F2B51EC100B9B
:104E400003F088FE94ED66CB41EC190B53EC1C2B60
:104E500051EC1A0B03F07EFE02E04AE14BE2E6E37E
:104E600053EC192B03F0A6FB53EC1B2B03F0A2FB16
:104E700041EC190B53EC1C2B03F06CFE53EC1A2B7A
:104E800003F09CFF41EC1B0B53EC1F2B84ED5ABB32
:104E900051EC190B03F05EFE9DED0E0B53EC102B45
:104EA00003F08CFF41EC1A0B53EC1D2B84ED5CAB33
:104EB00051EC190B03F04EFE53EC1E2B03F07EFF5A
:104EC00041EC190B53EC1D2B84ED5E9B51EC1A0B3E
:104ED00003F040FE41EC1E0B53EC1F2B51EC190B61
:104EE00003F038FE53EC1E2B04F040F841EC1E0B8F
:104EF00053EC1C2B84ED60EB51EC190B03F02AFEF4
:104F000041EC110B53EC1D2B8DED0E1B51EC1B0BCB
:104F100003F020FE9DED0E1B53EC112B04F026F840
:104F200041EC1D0B53EC1F2B84ED62DB51EC1B0B92
:104F300003F010FE41EC1F0B53EC1C2B51EC1A0B31
:104F400003F008FE53EC1F2B04F010F841EC1C0B8F
:104F500053EC192B84ED64CB51EC190B03F0FAFDE3
:104F600041EC190B53EC1A2B51EC1A0B03F0F2FD28
:104F700041EC1A0B53EC1B2B51EC1B0B03F0EAFD1D
:104F800053EC1A2B03F016FB53EC192B03F012FB16
:104F900041EC190B53EC1C2B51EC1C0B03F0DAFD0C
:104FA00041EC1A0B53EC1D2B51EC1D0B03F0D2FD01
:104FB00041EC1B0B53EC1E2B51EC1E0B03F0CAFDF6
:104FC00053EC1B2B03F0F6FA53EC1A2B03F0F2FA16
:104FD00041EC1A0B1FED860B51EC190B53EC102B07
:104FE00003F07CFD08D31FED8A0B51EC1A0B53EC38
:104FF000102B03F073FD7CD294ED24CB94ED2AABFF
:1050000053EC1C2B51EC1A0B03F0A4FD94ED28DBA0
:1050100094ED269B41EC1B0B53EC1D2B51EC190B13
:1050200003F098FD53EC1B2B03F0C4FA41EC1B0B6F
:1050300053EC1A2B51EC1A0B03F08CFD41EC1E0BB8
:1050400053EC192B51EC190B03F084FD53EC1E2B80
:1050500003F0B0FA1FEDA41B53EC112B03F0AEFECE
:1050600041EC100B53EC1C2B8DED040B51EC190B88
:1050700003F070FD41EC190B53EC1A2B51EC1D0B96
:1050800003F068FD53EC192B03F070FF94ED6AEB0D
:1050900041EC1F0B53EC1E2B03F05CFD94ED68DB21
:1050A0009DED040B41EC1C0B53EC1D2B51EC100B34
:1050B00003F050FD94ED669B41EC1A0B53EC192B59
:1050C00051EC1B0B03F046FD53EC1A2B03F072FA64
:1050D00053EC1C2B03F06EFA41EC1A0B53EC192B1A
:1050E00003F038FD53EC1B2B03F068FE41EC1C0B66
:1050F00000E02DE184ED60CB53EC1D2B51EC1A0B3D
:1051000003F028FD9DED040B53EC102B03F056FE2D
:1051100041EC1B0B53EC1E2B84ED62BB51EC1A0BC4
:1051200003F018FD53EC1F2B03F048FE41EC1A0B63
:1051300053EC1D2B84ED64AB03F00CFD41EC1F0B15
:1051400053EC1E2B51EC1B0B03F004FD53EC1F2BF7
:1051500003F00CFF41EC1F0B53EC1E2B84ED5AFBAC
:1051600051EC1C0B03F0F6FC41EC1E0B53EC192B1D
:1051700051EC1A0B03F0EEFC53EC1E2B03F0F6FE81
:1051800041EC1E0B53EC192B84ED5CEB51EC1B0B2B
:1051900003F0E0FC41EC190B53EC1D2B51EC1C0B04
:1051A00003F0D8FC53EC192B03F0E0FE41EC100B9C
:1051B00084ED5E0B53EC102B03F0CCFC41EC190B8F
:1051C00053EC1E2B51EC1E0B03F0C4FC41EC1D0BE9
:1051D00053EC1F2B51EC1F0B03F0BCFC53EC1D2BAD
:1051E00003F0E8F953EC192B03F0E4F941EC190B47
:1051F00053EC1A2B51EC1A0B03F0ACFC41EC1A0BDC
:1052000053EC1B2B51EC1B0B03F0A4FC41EC1B0BD0
:1052100000E0FCE353EC1C2B51EC1C0B03F09AFC5C
:1052200053EC1B2B03F0C6F953EC1A2B03F0C2F915
:1052300041EC1A0B9FEDFEBB51EC190B53EC1B2BF1
:1052400003F04CFC06D353EC1B2B51EC1A0B03F070
:1052500045FC7DD294ED680B02F0A6FB9FEDF69B1A
:1052600051EC100B53EC192B03F072FD0AD994ED9D
:105270006A0B02F099FB53EC192B51EC100B03F065
:1052800067FD66D894ED669B04F5B47453EC192B56
:1052900051EC190B03F05EFC53EC182B03F08EFD60
:1052A000C4E9000151EC190B03F077F90E4646EC06
:1052B000100B94ED0E9B054653EC192B51EC100B83
:1052C00003F048FCC4E9020146EC105B94ED10AB1E
:1052D00051EC100B53EC1A2B03F03CFC9FEDD80B58
:1052E000C4E9040184ED060B84ED08AB51EC190B05
:1052F00003F053F9F1E394ED680B8DED140B94ED8D
:105300002ABB53EC102B51EC1B0B03F023FC94ED48
:105310006A0B41EC190B8DED0C0B94ED28AB53ECA3
:10532000102B51EC1A0B03F015FC53EC192B03F066
:105330001DFE9FEDC5CB53EC1C2B03F00BFC41EC89
:10534000100B8DED080B94ED269B9DED0C0B01E0F1
:105350005CE3FDE353EC102B51EC190B03F0FAFB6B
:1053600094ED66EB41EC1D0B53EC1E2B51EC1B0B2B
:1053700003F0F0FB53EC1D2B03F0F8FD53EC1C2B5A
:1053800003F0E8FB41EC100B53EC1E2B8DED100BE2
:1053900051EC1A0B03F0DEFB9DED140B41EC1D0BE1
:1053A00053EC102B51EC190B03F0D4FB53EC1D2BD9
:1053B00003F0DCFD53EC1C2B03F0CCFB41EC1D0B8C
:1053C00051EC1A0B53EC1D2B03F0C4FB41EC100BFA
:1053D00051EC1B0B8DED0E0B9DED100B53EC102BB8
:1053E00003F0B8FB94ED24CB9DED080B41EC1F0BB3
:1053F00053EC102B51EC1C0B03F0ACFB53EC1E2BAD
:1054000003F0D8F853EC1F2B03F0B0FD9DED0E0B0D
:1054100053EC102B03F0CEF841EC1F0B53EC1D2B7B
:1054200051EC190B03F096FB41EC110B51EC1C0BEA
:105430008DED121B9DED100B53EC102B03F08AFB2E
:105440009DED080B41EC1E0B53EC102B51EC1B0B8C
:1054500003F080FB9DED140B53EC102B03F0AAF826
:1054600053EC1E2B03F0A6F89DED121B53EC112BF1
:1054700003F07CFD41EC1E0B53EC1D2B51EC1C0B7F
:1054800003F068FB41EC110B51EC190B8DED0A1B7D
:105490009DED100B53EC102B03F05CFB9DED080B06
:1054A00041EC1D0B53EC102B51EC1A0B03F052FB8B
:1054B0009DED0C0B53EC102B03F080FC53EC1D2BDB
:1054C00003F078F89DED0A1B53EC112B03F072F8F2
:1054D00053EC182B03F06EF841EC1D0B53EC1F2B13
:1054E00051EC1A0B03F036FB41EC100B53EC1E2B66
:1054F0008DED0C0B51EC190B03F02CFB41EC100B58
:1055000053EC1D2B8DED0A0B51EC1C0B03F022FB11
:105510009DED0A0B53EC102B03F028FD9DED0C0BB9
:1055200053EC102B03F046F841EC100B53EC1F2BFF
:1055300084ED140B8DED0C0B51EC1B0B03F00AFBEF
:1055400041EC100B53EC1E2B8DED140B51EC1C0B8E
:1055500003F000FB41EC100B53EC1D2B8DED100BF9
:1055600051EC190B03F0F6FA9DED100B53EC102BD8
:1055700003F020F89DED140B53EC102B03F0F6FC18
:1055800041EC100B53EC1F2B84ED160B8DED0A0B29
:1055900051EC1C0B03F0DEFA41EC100B53EC1E2B0C
:1055A0008DED140B51EC1B0B03F0D4FA41EC1C0BEA
:1055B00053EC1D2B51EC1A0B03F0CCFA53EC1C2BC3
:1055C00003F0D4FC9DED140B53EC102B03F0CEFC38
:1055D00041EC1C0B53EC1F2B84ED18CB51EC190B39
:1055E00003F0B8FA41EC190B53EC1E2B51EC1A0BDB
:1055F00003F0B0FA41EC1A0B53EC1D2B51EC1B0BD2
:1056000003F0A8FA53EC1A2B02F0D4FF53EC192B39
:1056100002F0D0FF41EC100B84ED1A0B53EC102B71
:1056200003F098FA41EC190B53EC1C2B10E070E1DD
:10563000A78EA899C257F33A11EA2D819997713D27
:10564000000000000000000000000000000000401A
:1056500051EC1C0B03F07EFA9DED0A0B41EC1A0B8A
:1056600053EC102B51EC100B03F074FA9DED0C0B66
:1056700041EC1B0B53EC102B51EC100B03F06AFAAE
:1056800053EC1B2B02F096FF53EC1A2B02F092FF07
:1056900053EC192B02F08EFF1FED1B0B41EC190B85
:1056A00053EC102B03F054FB04D8B0EE490AF0EE93
:1056B000690A4CE294ED2ABB53EC1B2B51EC1B0BFB
:1056C00003F048FA94ED289B41EC1A0B53EC192B8C
:1056D00051EC190B03F03EFA53EC1A2B02F06AFF5F
:1056E0009FEDFE1B53EC112B03F068FB94ED24DBC4
:1056F00041EC1A0B53EC1D2B51EC1B0B03F02AFA57
:1057000094ED26CB41EC1E0B53EC192B51EC1C0BEA
:1057100003F020FA53EC1E2B03F028FC41EC100B95
:1057200053EC1D2B8DED0E0B51EC190B03F012FAFF
:1057300041EC190B53EC1B2B51EC1C0B03F00AFA38
:1057400053EC192B02F036FF94ED6AEB41EC1F0B82
:1057500053EC1E2B03F0FEF994ED68DB9DED0E0B70
:1057600041EC1B0B53EC1D2B51EC100B03F0F2F929
:1057700094ED66CB41EC190B53EC1C2B51EC1A0B3E
:1057800003F0E8F953EC192B02F014FF53EC1B2B38
:1057900002F010FF41EC190B53EC1C2B03F0DAF96B
:1057A00053EC1A2B03F00AFB41EC1B0B53EC1D2BA3
:1057B00084ED5ABB51EC190B03F0CCF99DED0E0BA7
:1057C00053EC102B03F0FAFA41EC1A0B53EC1E2B9E
:1057D00084ED5CAB51EC190B03F0BCF953EC1F2BBF
:1057E00003F0ECFA41EC190B53EC1E2B84ED5E9B9D
:1057F00051EC1A0B03F0AEF941EC1F0B53EC1D2BCF
:1058000051EC190B03F0A6F953EC1F2B03F0AEFB80
:1058100041EC1F0B53EC1C2B84ED60FB51EC190B7E
:1058200003F098F941EC110B53EC1E2B8DED0E1B80
:1058300051EC1B0B03F08EF99DED0E1B53EC112B5D
:1058400003F094FB41EC1E0B53EC1D2B84ED62EB3B
:1058500051EC1B0B03F07EF941EC1D0B53EC1C2BA0
:1058600051EC1A0B03F076F953EC1D2B03F07EFB81
:1058700041EC1C0B53EC192B84ED64CB51EC190B50
:1058800003F068F941EC190B53EC1A2B51EC1A0B8D
:1058900003F060F941EC1A0B53EC1B2B51EC1B0B82
:1058A00003F058F953EC1A2B02F084FE53EC192B39
:1058B00002F080FE41EC190B53EC1C2B51EC1C0B3D
:1058C00003F048F941EC1A0B53EC1E2B51EC1E0B64
:1058D00003F040F941EC1B0B53EC1F2B51EC1F0B59
:1058E00003F038F953EC1B2B02F064FE53EC1A2B37
:1058F00002F060FE41EC1A0B1FEDB3BB18E300BFD2
:1059000053EC1B2B51EC1A0B03F0E8F87ED2FFF797
:105910007FB894ED2A0B53EC102B51EC100B03F0D5
:1059200019F994ED240B41EC190B53EC102B51ECAD
:10593000100B03F00FF953EC192B02F03BFE41EC76
:105940001A0B1FEDC50B53EC102B03F001FA22D8F4
:10595000B0EE4A0AF0EE6A0A02F096F853EC102B09
:1059600051EC180B02F0DAFE41EC190B94ED240B0C
:1059700053EC192B51EC100B03F0ECF894ED2A0BBF
:1059800041EC1A0B53EC192B51EC100B03F0E2F81D
:1059900041EC190B52E094ED28AB53EC1A2B51EC6F
:1059A0001A0B03F0D7F853EC192B02F003FE9FED0E
:1059B0004BBB53EC1B2B03F001FA94ED260B41EC8F
:1059C000190B53EC1A2B51EC100B03F0C3F894EDA8
:1059D0002A1B94ED240B41EC1A0B53EC112B51ECC8
:1059E000100B03F0B7F853EC1A2B02F0E3FD41EC77
:1059F000100BB0EE491AF0EE691A01F079FE53EC83
:105A00001B2B51EC100B03F0A5F801E073E2F8E159
:105A100041EC190BB0EE490AF0EE690A01F060FFA3
:105A2000B0EE40AAF0EE60AAB0EE490AF0EE690AC4
:105A300001F0C6FFB0EE409AF0EE609A94ED6A0B6A
:105A400053EC182B51EC100B02F0B4FD41EC1D0B84
:105A500051EC1A0B53EC1D2B03F07CF841EC1C0BA2
:105A600051EC190B84ED14CB94ED66FB53EC1F2B1A
:105A700003F070F894ED68EB41EC1B0B53EC1E2B1C
:105A800051EC1A0B03F066F853EC1B2B02F092FD5D
:105A900041EC1B0B53EC1F2B84ED16BB51EC1A0B86
:105AA00003F058F841EC1F0B53EC1E2B51EC190B73
:105AB00003F050F853EC1F2B03F058FA41EC1E0B87
:105AC00053EC1D2B84ED18EB51EC190B03F042F84D
:105AD00041EC100B84ED1A0B04E0D7E1000000004C
